{
    "_format": "hh-sol-artifact-1",
    "contractName": "BuyMeACoffee",
    "sourceName": "contracts/BuyMeACoffee.sol",
    "abi": [
        {
            "inputs": [],
            "stateMutability": "nonpayable",
            "type": "constructor"
        },
        {
            "anonymous": false,
            "inputs": [
                {
                    "indexed": true,
                    "internalType": "address",
                    "name": "from",
                    "type": "address"
                },
                {
                    "indexed": false,
                    "internalType": "uint256",
                    "name": "timestamp",
                    "type": "uint256"
                },
                {
                    "indexed": false,
                    "internalType": "string",
                    "name": "name",
                    "type": "string"
                },
                {
                    "indexed": false,
                    "internalType": "string",
                    "name": "message",
                    "type": "string"
                },
                {
                    "indexed": false,
                    "internalType": "uint256",
                    "name": "amount",
                    "type": "uint256"
                }
            ],
            "name": "NewMemo",
            "type": "event"
        },
        {
            "inputs": [
                {
                    "internalType": "string",
                    "name": "_name",
                    "type": "string"
                },
                {
                    "internalType": "string",
                    "name": "_message",
                    "type": "string"
                }
            ],
            "name": "buyCoffee",
            "outputs": [],
            "stateMutability": "payable",
            "type": "function"
        },
        {
            "inputs": [],
            "name": "getMemos",
            "outputs": [
                {
                    "components": [
                        {
                            "internalType": "address",
                            "name": "from",
                            "type": "address"
                        },
                        {
                            "internalType": "uint256",
                            "name": "timestamp",
                            "type": "uint256"
                        },
                        {
                            "internalType": "string",
                            "name": "name",
                            "type": "string"
                        },
                        {
                            "internalType": "string",
                            "name": "message",
                            "type": "string"
                        },
                        {
                            "internalType": "uint256",
                            "name": "amount",
                            "type": "uint256"
                        }
                    ],
                    "internalType": "struct BuyMeACoffee.Memo[]",
                    "name": "",
                    "type": "tuple[]"
                }
            ],
            "stateMutability": "view",
            "type": "function"
        },
        {
            "inputs": [],
            "name": "owner",
            "outputs": [
                {
                    "internalType": "address payable",
                    "name": "",
                    "type": "address"
                }
            ],
            "stateMutability": "view",
            "type": "function"
        },
        {
            "inputs": [
                {
                    "internalType": "address",
                    "name": "_newOwner",
                    "type": "address"
                }
            ],
            "name": "transferOwnership",
            "outputs": [],
            "stateMutability": "nonpayable",
            "type": "function"
        },
        {
            "inputs": [],
            "name": "withdrawTips",
            "outputs": [],
            "stateMutability": "nonpayable",
            "type": "function"
        }
    ],
    "bytecode": "0x608060405234801561001057600080fd5b5033600160006101000a81548173ffffffffffffffffffffffffffffffffffffffff021916908373ffffffffffffffffffffffffffffffffffffffff160217905550610e93806100616000396000f3fe60806040526004361061004a5760003560e01c8063204206e11461004f5780633aaa74b21461006b578063865c5172146100825780638da5cb5b146100ad578063f2fde38b146100d8575b600080fd5b610069600480360381019061006491906106fa565b610101565b005b34801561007757600080fd5b5061008061028d565b005b34801561008e57600080fd5b506100976102ef565b6040516100a4919061098a565b60405180910390f35b3480156100b957600080fd5b506100c26104dc565b6040516100cf91906109cd565b60405180910390f35b3480156100e457600080fd5b506100ff60048036038101906100fa9190610a14565b610502565b005b60003411610144576040517f08c379a000000000000000000000000000000000000000000000000000000000815260040161013b90610ac4565b60405180910390fd5b60006040518060a001604052803373ffffffffffffffffffffffffffffffffffffffff16815260200142815260200184815260200183815260200134815250908060018154018082558091505060019003906000526020600020906005020160009091909190915060008201518160000160006101000a81548173ffffffffffffffffffffffffffffffffffffffff021916908373ffffffffffffffffffffffffffffffffffffffff1602179055506020820151816001015560408201518160020190816102129190610cf0565b5060608201518160030190816102289190610cf0565b506080820151816004015550503373ffffffffffffffffffffffffffffffffffffffff167fe6609e3b36bf3d0e12aa4c5b518055c81016d4f091e4fa2be01ff5f2690512bb428484346040516102819493929190610e0a565b60405180910390a25050565b600160009054906101000a900473ffffffffffffffffffffffffffffffffffffffff1673ffffffffffffffffffffffffffffffffffffffff166108fc479081150290604051600060405180830381858888f193505050506102ed57600080fd5b565b60606000805480602002602001604051908101604052809291908181526020016000905b828210156104d357838290600052602060002090600502016040518060a00160405290816000820160009054906101000a900473ffffffffffffffffffffffffffffffffffffffff1673ffffffffffffffffffffffffffffffffffffffff1673ffffffffffffffffffffffffffffffffffffffff168152602001600182015481526020016002820180546103a690610b13565b80601f01602080910402602001604051908101604052809291908181526020018280546103d290610b13565b801561041f5780601f106103f45761010080835404028352916020019161041f565b820191906000526020600020905b81548152906001019060200180831161040257829003601f168201915b5050505050815260200160038201805461043890610b13565b80601f016020809104026020016040519081016040528092919081815260200182805461046490610b13565b80156104b15780601f10610486576101008083540402835291602001916104b1565b820191906000526020600020905b81548152906001019060200180831161049457829003601f168201915b5050505050815260200160048201548152505081526020019060010190610313565b50505050905090565b600160009054906101000a900473ffffffffffffffffffffffffffffffffffffffff1681565b600160009054906101000a900473ffffffffffffffffffffffffffffffffffffffff1673ffffffffffffffffffffffffffffffffffffffff163373ffffffffffffffffffffffffffffffffffffffff161461055c57600080fd5b80600160006101000a81548173ffffffffffffffffffffffffffffffffffffffff021916908373ffffffffffffffffffffffffffffffffffffffff16021790555050565b6000604051905090565b600080fd5b600080fd5b600080fd5b600080fd5b6000601f19601f8301169050919050565b7f4e487b7100000000000000000000000000000000000000000000000000000000600052604160045260246000fd5b610607826105be565b810181811067ffffffffffffffff82111715610626576106256105cf565b5b80604052505050565b60006106396105a0565b905061064582826105fe565b919050565b600067ffffffffffffffff821115610665576106646105cf565b5b61066e826105be565b9050602081019050919050565b82818337600083830152505050565b600061069d6106988461064a565b61062f565b9050828152602081018484840111156106b9576106b86105b9565b5b6106c484828561067b565b509392505050565b600082601f8301126106e1576106e06105b4565b5b81356106f184826020860161068a565b91505092915050565b60008060408385031215610711576107106105aa565b5b600083013567ffffffffffffffff81111561072f5761072e6105af565b5b61073b858286016106cc565b925050602083013567ffffffffffffffff81111561075c5761075b6105af565b5b610768858286016106cc565b9150509250929050565b600081519050919050565b600082825260208201905092915050565b6000819050602082019050919050565b600073ffffffffffffffffffffffffffffffffffffffff82169050919050565b60006107c98261079e565b9050919050565b6107d9816107be565b82525050565b6000819050919050565b6107f2816107df565b82525050565b600081519050919050565b600082825260208201905092915050565b60005b83811015610832578082015181840152602081019050610817565b60008484015250505050565b6000610849826107f8565b6108538185610803565b9350610863818560208601610814565b61086c816105be565b840191505092915050565b600060a08301600083015161088f60008601826107d0565b5060208301516108a260208601826107e9565b50604083015184820360408601526108ba828261083e565b915050606083015184820360608601526108d4828261083e565b91505060808301516108e960808601826107e9565b508091505092915050565b60006109008383610877565b905092915050565b6000602082019050919050565b600061092082610772565b61092a818561077d565b93508360208202850161093c8561078e565b8060005b85811015610978578484038952815161095985826108f4565b945061096483610908565b925060208a01995050600181019050610940565b50829750879550505050505092915050565b600060208201905081810360008301526109a48184610915565b905092915050565b60006109b78261079e565b9050919050565b6109c7816109ac565b82525050565b60006020820190506109e260008301846109be565b92915050565b6109f1816107be565b81146109fc57600080fd5b50565b600081359050610a0e816109e8565b92915050565b600060208284031215610a2a57610a296105aa565b5b6000610a38848285016109ff565b91505092915050565b600082825260208201905092915050565b7f796f7e20746865726520617265206e6f206672656520636f666665652068657260008201527f657e200000000000000000000000000000000000000000000000000000000000602082015250565b6000610aae602383610a41565b9150610ab982610a52565b604082019050919050565b60006020820190508181036000830152610add81610aa1565b9050919050565b7f4e487b7100000000000000000000000000000000000000000000000000000000600052602260045260246000fd5b60006002820490506001821680610b2b57607f821691505b602082108103610b3e57610b3d610ae4565b5b50919050565b60008190508160005260206000209050919050565b60006020601f8301049050919050565b600082821b905092915050565b600060088302610ba67fffffffffffffffffffffffffffffffffffffffffffffffffffffffffffffffff82610b69565b610bb08683610b69565b95508019841693508086168417925050509392505050565b6000819050919050565b6000610bed610be8610be3846107df565b610bc8565b6107df565b9050919050565b6000819050919050565b610c0783610bd2565b610c1b610c1382610bf4565b848454610b76565b825550505050565b600090565b610c30610c23565b610c3b818484610bfe565b505050565b5b81811015610c5f57610c54600082610c28565b600181019050610c41565b5050565b601f821115610ca457610c7581610b44565b610c7e84610b59565b81016020851015610c8d578190505b610ca1610c9985610b59565b830182610c40565b50505b505050565b600082821c905092915050565b6000610cc760001984600802610ca9565b1980831691505092915050565b6000610ce08383610cb6565b9150826002028217905092915050565b610cf9826107f8565b67ffffffffffffffff811115610d1257610d116105cf565b5b610d1c8254610b13565b610d27828285610c63565b600060209050601f831160018114610d5a5760008415610d48578287015190505b610d528582610cd4565b865550610dba565b601f198416610d6886610b44565b60005b82811015610d9057848901518255600182019150602085019450602081019050610d6b565b86831015610dad5784890151610da9601f891682610cb6565b8355505b6001600288020188555050505b505050505050565b610dcb816107df565b82525050565b6000610ddc826107f8565b610de68185610a41565b9350610df6818560208601610814565b610dff816105be565b840191505092915050565b6000608082019050610e1f6000830187610dc2565b8181036020830152610e318186610dd1565b90508181036040830152610e458185610dd1565b9050610e546060830184610dc2565b9594505050505056fea2646970667358221220391555e39465c4433214266cdf2016c22091aea07911749c10a8efea822d5a0f64736f6c63430008110033",
    "linkReferences": {},
    "deployedLinkReferences": {}
}