{
  "_format": "hh-sol-artifact-1",
  "contractName": "NinjaFlip",
  "sourceName": "contracts/NinjaFlip.sol",
  "abi": [
    {
      "inputs": [
        {
          "internalType": "address",
          "name": "_ERC20Contract",
          "type": "address"
        },
        {
          "internalType": "uint8",
          "name": "_tax",
          "type": "uint8"
        }
      ],
      "stateMutability": "nonpayable",
      "type": "constructor"
    },
    {
      "inputs": [],
      "name": "ERC20Contract",
      "outputs": [
        {
          "internalType": "address",
          "name": "",
          "type": "address"
        }
      ],
      "stateMutability": "view",
      "type": "function"
    },
    {
      "inputs": [
        {
          "internalType": "address",
          "name": "_ERC20Contract",
          "type": "address"
        }
      ],
      "name": "changeERC20",
      "outputs": [],
      "stateMutability": "nonpayable",
      "type": "function"
    },
    {
      "inputs": [
        {
          "internalType": "uint8",
          "name": "_tax",
          "type": "uint8"
        }
      ],
      "name": "changeTax",
      "outputs": [],
      "stateMutability": "nonpayable",
      "type": "function"
    },
    {
      "inputs": [
        {
          "internalType": "uint8",
          "name": "_choose",
          "type": "uint8"
        },
        {
          "internalType": "uint256",
          "name": "_amount",
          "type": "uint256"
        }
      ],
      "name": "commitBet",
      "outputs": [],
      "stateMutability": "nonpayable",
      "type": "function"
    },
    {
      "inputs": [],
      "name": "owner",
      "outputs": [
        {
          "internalType": "address",
          "name": "",
          "type": "address"
        }
      ],
      "stateMutability": "view",
      "type": "function"
    },
    {
      "inputs": [
        {
          "internalType": "address",
          "name": "",
          "type": "address"
        }
      ],
      "name": "playerRec",
      "outputs": [
        {
          "internalType": "uint256",
          "name": "blockNumber",
          "type": "uint256"
        },
        {
          "internalType": "uint8",
          "name": "choose",
          "type": "uint8"
        },
        {
          "internalType": "uint256",
          "name": "amount",
          "type": "uint256"
        },
        {
          "internalType": "enum NinjaFlip.StateType",
          "name": "state",
          "type": "uint8"
        },
        {
          "internalType": "uint256",
          "name": "nonce",
          "type": "uint256"
        }
      ],
      "stateMutability": "view",
      "type": "function"
    },
    {
      "inputs": [],
      "name": "reveal",
      "outputs": [],
      "stateMutability": "nonpayable",
      "type": "function"
    },
    {
      "inputs": [],
      "name": "tax",
      "outputs": [
        {
          "internalType": "uint8",
          "name": "",
          "type": "uint8"
        }
      ],
      "stateMutability": "view",
      "type": "function"
    },
    {
      "inputs": [],
      "name": "withdraw",
      "outputs": [],
      "stateMutability": "nonpayable",
      "type": "function"
    }
  ],
  "bytecode": "0x60806040523480156200001157600080fd5b5060405162001a9738038062001a97833981810160405281019062000037919062000183565b336000806101000a81548173ffffffffffffffffffffffffffffffffffffffff021916908373ffffffffffffffffffffffffffffffffffffffff16021790555081600160006101000a81548173ffffffffffffffffffffffffffffffffffffffff021916908373ffffffffffffffffffffffffffffffffffffffff16021790555080600160146101000a81548160ff021916908360ff1602179055505050620001ca565b600080fd5b600073ffffffffffffffffffffffffffffffffffffffff82169050919050565b60006200010d82620000e0565b9050919050565b6200011f8162000100565b81146200012b57600080fd5b50565b6000815190506200013f8162000114565b92915050565b600060ff82169050919050565b6200015d8162000145565b81146200016957600080fd5b50565b6000815190506200017d8162000152565b92915050565b600080604083850312156200019d576200019c620000db565b5b6000620001ad858286016200012e565b9250506020620001c0858286016200016c565b9150509250929050565b6118bd80620001da6000396000f3fe608060405234801561001057600080fd5b50600436106100935760003560e01c806399c8d5561161006657806399c8d556146100fa578063a475b5dd14610118578063ca833fc814610122578063d265185514610156578063f5038ce41461017257610093565b80633ccfd60b146100985780634cf291d6146100a25780637996f571146100be5780638da5cb5b146100dc575b600080fd5b6100a061018e565b005b6100bc60048036038101906100b79190610f50565b61037a565b005b6100c6610426565b6040516100d39190610fbe565b60405180910390f35b6100e461044c565b6040516100f19190610fbe565b60405180910390f35b610102610470565b60405161010f9190610fe8565b60405180910390f35b610120610483565b005b61013c6004803603810190610137919061102f565b6108ed565b60405161014d9594939291906110ec565b60405180910390f35b610170600480360381019061016b919061102f565b61093d565b005b61018c6004803603810190610187919061116b565b610a0f565b005b60008054906101000a900473ffffffffffffffffffffffffffffffffffffffff1673ffffffffffffffffffffffffffffffffffffffff163373ffffffffffffffffffffffffffffffffffffffff161461021c576040517f08c379a000000000000000000000000000000000000000000000000000000000815260040161021390611208565b60405180910390fd5b600160009054906101000a900473ffffffffffffffffffffffffffffffffffffffff1673ffffffffffffffffffffffffffffffffffffffff1663a9059cbb60008054906101000a900473ffffffffffffffffffffffffffffffffffffffff16600160009054906101000a900473ffffffffffffffffffffffffffffffffffffffff1673ffffffffffffffffffffffffffffffffffffffff166370a08231306040518263ffffffff1660e01b81526004016102d69190610fbe565b602060405180830381865afa1580156102f3573d6000803e3d6000fd5b505050506040513d601f19601f82011682018060405250810190610317919061123d565b6040518363ffffffff1660e01b815260040161033492919061126a565b6020604051808303816000875af1158015610353573d6000803e3d6000fd5b505050506040513d601f19601f8201168201806040525081019061037791906112cb565b50565b60008054906101000a900473ffffffffffffffffffffffffffffffffffffffff1673ffffffffffffffffffffffffffffffffffffffff163373ffffffffffffffffffffffffffffffffffffffff1614610408576040517f08c379a00000000000000000000000000000000000000000000000000000000081526004016103ff90611208565b60405180910390fd5b80600160146101000a81548160ff021916908360ff16021790555050565b600160009054906101000a900473ffffffffffffffffffffffffffffffffffffffff1681565b60008054906101000a900473ffffffffffffffffffffffffffffffffffffffff1681565b600160149054906101000a900460ff1681565b6001600381111561049757610496611075565b5b600260003373ffffffffffffffffffffffffffffffffffffffff1673ffffffffffffffffffffffffffffffffffffffff16815260200190815260200160002060030160009054906101000a900460ff1660038111156104f9576104f8611075565b5b14610539576040517f08c379a000000000000000000000000000000000000000000000000000000000815260040161053090611344565b60405180910390fd5b6001600260003373ffffffffffffffffffffffffffffffffffffffff1673ffffffffffffffffffffffffffffffffffffffff16815260200190815260200160002060000154436105899190611393565b10156105ca576040517f08c379a00000000000000000000000000000000000000000000000000000000081526004016105c190611439565b60405180910390fd5b6000600260003373ffffffffffffffffffffffffffffffffffffffff1673ffffffffffffffffffffffffffffffffffffffff1681526020019081526020016000206004015433600260003373ffffffffffffffffffffffffffffffffffffffff1673ffffffffffffffffffffffffffffffffffffffff1681526020019081526020016000206000015440604051602001610666939291906114ed565b604051602081830303815290604052805190602001209050600060028260001c6106909190611559565b9050600260003373ffffffffffffffffffffffffffffffffffffffff1673ffffffffffffffffffffffffffffffffffffffff16815260200190815260200160002060010160009054906101000a900460ff1660ff16810361087d5760028060003373ffffffffffffffffffffffffffffffffffffffff1673ffffffffffffffffffffffffffffffffffffffff16815260200190815260200160002060030160006101000a81548160ff021916908360038111156107505761074f611075565b5b0217905550600160009054906101000a900473ffffffffffffffffffffffffffffffffffffffff1673ffffffffffffffffffffffffffffffffffffffff1663a9059cbb336064600160149054906101000a900460ff1660646107b2919061158a565b60ff1660028060003373ffffffffffffffffffffffffffffffffffffffff1673ffffffffffffffffffffffffffffffffffffffff1681526020019081526020016000206002015461080391906115bf565b61080d91906115bf565b6108179190611601565b6040518363ffffffff1660e01b815260040161083492919061126a565b6020604051808303816000875af1158015610853573d6000803e3d6000fd5b505050506040513d601f19601f8201168201806040525081019061087791906112cb565b506108e9565b6003600260003373ffffffffffffffffffffffffffffffffffffffff1673ffffffffffffffffffffffffffffffffffffffff16815260200190815260200160002060030160006101000a81548160ff021916908360038111156108e3576108e2611075565b5b02179055505b5050565b60026020528060005260406000206000915090508060000154908060010160009054906101000a900460ff16908060020154908060030160009054906101000a900460ff16908060040154905085565b60008054906101000a900473ffffffffffffffffffffffffffffffffffffffff1673ffffffffffffffffffffffffffffffffffffffff163373ffffffffffffffffffffffffffffffffffffffff16146109cb576040517f08c379a00000000000000000000000000000000000000000000000000000000081526004016109c290611208565b60405180910390fd5b80600160006101000a81548173ffffffffffffffffffffffffffffffffffffffff021916908373ffffffffffffffffffffffffffffffffffffffff16021790555050565b60016003811115610a2357610a22611075565b5b600260003373ffffffffffffffffffffffffffffffffffffffff1673ffffffffffffffffffffffffffffffffffffffff16815260200190815260200160002060030160009054906101000a900460ff166003811115610a8557610a84611075565b5b03610ac5576040517f08c379a0000000000000000000000000000000000000000000000000000000008152600401610abc906116a4565b60405180910390fd5b80600160009054906101000a900473ffffffffffffffffffffffffffffffffffffffff1673ffffffffffffffffffffffffffffffffffffffff166370a08231336040518263ffffffff1660e01b8152600401610b219190610fbe565b602060405180830381865afa158015610b3e573d6000803e3d6000fd5b505050506040513d601f19601f82011682018060405250810190610b62919061123d565b1015610ba3576040517f08c379a0000000000000000000000000000000000000000000000000000000008152600401610b9a90611710565b60405180910390fd5b80600160009054906101000a900473ffffffffffffffffffffffffffffffffffffffff1673ffffffffffffffffffffffffffffffffffffffff166370a08231306040518263ffffffff1660e01b8152600401610bff9190610fbe565b602060405180830381865afa158015610c1c573d6000803e3d6000fd5b505050506040513d601f19601f82011682018060405250810190610c40919061123d565b1015610c81576040517f08c379a0000000000000000000000000000000000000000000000000000000008152600401610c789061177c565b60405180910390fd5b600160009054906101000a900473ffffffffffffffffffffffffffffffffffffffff1673ffffffffffffffffffffffffffffffffffffffff166323b872dd3330846040518463ffffffff1660e01b8152600401610ce09392919061179c565b6020604051808303816000875af1158015610cff573d6000803e3d6000fd5b505050506040513d601f19601f82011682018060405250810190610d2391906112cb565b610d62576040517f08c379a0000000000000000000000000000000000000000000000000000000008152600401610d599061181f565b60405180910390fd5b43600260003373ffffffffffffffffffffffffffffffffffffffff1673ffffffffffffffffffffffffffffffffffffffff1681526020019081526020016000206000018190555081600260003373ffffffffffffffffffffffffffffffffffffffff1673ffffffffffffffffffffffffffffffffffffffff16815260200190815260200160002060010160006101000a81548160ff021916908360ff16021790555080600260003373ffffffffffffffffffffffffffffffffffffffff1673ffffffffffffffffffffffffffffffffffffffff168152602001908152602001600020600201819055506001600260003373ffffffffffffffffffffffffffffffffffffffff1673ffffffffffffffffffffffffffffffffffffffff16815260200190815260200160002060030160006101000a81548160ff02191690836003811115610eb157610eb0611075565b5b0217905550600260003373ffffffffffffffffffffffffffffffffffffffff1673ffffffffffffffffffffffffffffffffffffffff1681526020019081526020016000206004016000815480929190610f099061183f565b91905055505050565b600080fd5b600060ff82169050919050565b610f2d81610f17565b8114610f3857600080fd5b50565b600081359050610f4a81610f24565b92915050565b600060208284031215610f6657610f65610f12565b5b6000610f7484828501610f3b565b91505092915050565b600073ffffffffffffffffffffffffffffffffffffffff82169050919050565b6000610fa882610f7d565b9050919050565b610fb881610f9d565b82525050565b6000602082019050610fd36000830184610faf565b92915050565b610fe281610f17565b82525050565b6000602082019050610ffd6000830184610fd9565b92915050565b61100c81610f9d565b811461101757600080fd5b50565b60008135905061102981611003565b92915050565b60006020828403121561104557611044610f12565b5b60006110538482850161101a565b91505092915050565b6000819050919050565b61106f8161105c565b82525050565b7f4e487b7100000000000000000000000000000000000000000000000000000000600052602160045260246000fd5b600481106110b5576110b4611075565b5b50565b60008190506110c6826110a4565b919050565b60006110d6826110b8565b9050919050565b6110e6816110cb565b82525050565b600060a0820190506111016000830188611066565b61110e6020830187610fd9565b61111b6040830186611066565b61112860608301856110dd565b6111356080830184611066565b9695505050505050565b6111488161105c565b811461115357600080fd5b50565b6000813590506111658161113f565b92915050565b6000806040838503121561118257611181610f12565b5b600061119085828601610f3b565b92505060206111a185828601611156565b9150509250929050565b600082825260208201905092915050565b7f596f752073686f756c64206e6f74207061737321000000000000000000000000600082015250565b60006111f26014836111ab565b91506111fd826111bc565b602082019050919050565b60006020820190508181036000830152611221816111e5565b9050919050565b6000815190506112378161113f565b92915050565b60006020828403121561125357611252610f12565b5b600061126184828501611228565b91505092915050565b600060408201905061127f6000830185610faf565b61128c6020830184611066565b9392505050565b60008115159050919050565b6112a881611293565b81146112b357600080fd5b50565b6000815190506112c58161129f565b92915050565b6000602082840312156112e1576112e0610f12565b5b60006112ef848285016112b6565b91505092915050565b7f596f752068617665206e6f2067616d6520746f2072657665616c7e0000000000600082015250565b600061132e601b836111ab565b9150611339826112f8565b602082019050919050565b6000602082019050818103600083015261135d81611321565b9050919050565b7f4e487b7100000000000000000000000000000000000000000000000000000000600052601160045260246000fd5b600061139e8261105c565b91506113a98361105c565b92508282039050818111156113c1576113c0611364565b5b92915050565b7f506c656173652077616974203120626c6f636b20616e6420747279206167616960008201527f6e7e000000000000000000000000000000000000000000000000000000000000602082015250565b60006114236022836111ab565b915061142e826113c7565b604082019050919050565b6000602082019050818103600083015261145281611416565b9050919050565b6000819050919050565b61147461146f8261105c565b611459565b82525050565b60008160601b9050919050565b60006114928261147a565b9050919050565b60006114a482611487565b9050919050565b6114bc6114b782610f9d565b611499565b82525050565b6000819050919050565b6000819050919050565b6114e76114e2826114c2565b6114cc565b82525050565b60006114f98286611463565b60208201915061150982856114ab565b60148201915061151982846114d6565b602082019150819050949350505050565b7f4e487b7100000000000000000000000000000000000000000000000000000000600052601260045260246000fd5b60006115648261105c565b915061156f8361105c565b92508261157f5761157e61152a565b5b828206905092915050565b600061159582610f17565b91506115a083610f17565b9250828203905060ff8111156115b9576115b8611364565b5b92915050565b60006115ca8261105c565b91506115d58361105c565b92508282026115e38161105c565b915082820484148315176115fa576115f9611364565b5b5092915050565b600061160c8261105c565b91506116178361105c565b9250826116275761162661152a565b5b828204905092915050565b7f706c656173652072657665616c20746865206c656173742067616d652066697260008201527f7374210000000000000000000000000000000000000000000000000000000000602082015250565b600061168e6023836111ab565b915061169982611632565b604082019050919050565b600060208201905081810360008301526116bd81611681565b9050919050565b7f596f7527726520746f6f20706f6f720000000000000000000000000000000000600082015250565b60006116fa600f836111ab565b9150611705826116c4565b602082019050919050565b60006020820190508181036000830152611729816116ed565b9050919050565b7f49276d20746f6f20706f6f720000000000000000000000000000000000000000600082015250565b6000611766600c836111ab565b915061177182611730565b602082019050919050565b6000602082019050818103600083015261179581611759565b9050919050565b60006060820190506117b16000830186610faf565b6117be6020830185610faf565b6117cb6040830184611066565b949350505050565b7f7472616e73666572206572726f72000000000000000000000000000000000000600082015250565b6000611809600e836111ab565b9150611814826117d3565b602082019050919050565b60006020820190508181036000830152611838816117fc565b9050919050565b600061184a8261105c565b91507fffffffffffffffffffffffffffffffffffffffffffffffffffffffffffffffff820361187c5761187b611364565b5b60018201905091905056fea264697066735822122053071d64df89420f671ec7ec4a2fa82adaa779e8978a8ffa8a40e81a84be4cc164736f6c63430008110033",
  "linkReferences": {},
  "deployedLinkReferences": {}
}