{
    "_format": "hh-sol-artifact-1",
    "contractName": "NinjaFlip",
    "sourceName": "contracts/NinjaFlip.sol",
    "abi": [
        {
            "inputs": [
                {
                    "internalType": "address",
                    "name": "_ERC20Contract",
                    "type": "address"
                },
                {
                    "internalType": "uint8",
                    "name": "_tax",
                    "type": "uint8"
                }
            ],
            "stateMutability": "nonpayable",
            "type": "constructor"
        },
        {
            "inputs": [],
            "name": "ERC20Contract",
            "outputs": [
                {
                    "internalType": "address",
                    "name": "",
                    "type": "address"
                }
            ],
            "stateMutability": "view",
            "type": "function"
        },
        {
            "inputs": [
                {
                    "internalType": "address",
                    "name": "_ERC20Contract",
                    "type": "address"
                }
            ],
            "name": "changeERC20",
            "outputs": [],
            "stateMutability": "nonpayable",
            "type": "function"
        },
        {
            "inputs": [
                {
                    "internalType": "uint8",
                    "name": "_tax",
                    "type": "uint8"
                }
            ],
            "name": "changeTax",
            "outputs": [],
            "stateMutability": "nonpayable",
            "type": "function"
        },
        {
            "inputs": [
                {
                    "internalType": "uint8",
                    "name": "_choose",
                    "type": "uint8"
                },
                {
                    "internalType": "uint256",
                    "name": "_amount",
                    "type": "uint256"
                }
            ],
            "name": "commitBet",
            "outputs": [],
            "stateMutability": "nonpayable",
            "type": "function"
        },
        {
            "inputs": [],
            "name": "owner",
            "outputs": [
                {
                    "internalType": "address",
                    "name": "",
                    "type": "address"
                }
            ],
            "stateMutability": "view",
            "type": "function"
        },
        {
            "inputs": [
                {
                    "internalType": "address",
                    "name": "",
                    "type": "address"
                }
            ],
            "name": "playerRec",
            "outputs": [
                {
                    "internalType": "uint256",
                    "name": "blockNumber",
                    "type": "uint256"
                },
                {
                    "internalType": "uint8",
                    "name": "choose",
                    "type": "uint8"
                },
                {
                    "internalType": "uint256",
                    "name": "amount",
                    "type": "uint256"
                },
                {
                    "internalType": "enum NinjaFlip.StateType",
                    "name": "state",
                    "type": "uint8"
                },
                {
                    "internalType": "uint256",
                    "name": "nonce",
                    "type": "uint256"
                }
            ],
            "stateMutability": "view",
            "type": "function"
        },
        {
            "inputs": [],
            "name": "reveal",
            "outputs": [
                {
                    "internalType": "uint256",
                    "name": "",
                    "type": "uint256"
                }
            ],
            "stateMutability": "nonpayable",
            "type": "function"
        },
        {
            "inputs": [],
            "name": "tax",
            "outputs": [
                {
                    "internalType": "uint8",
                    "name": "",
                    "type": "uint8"
                }
            ],
            "stateMutability": "view",
            "type": "function"
        },
        {
            "inputs": [],
            "name": "withdraw",
            "outputs": [],
            "stateMutability": "nonpayable",
            "type": "function"
        }
    ],
    "bytecode": "0x60806040523480156200001157600080fd5b5060405162001acc38038062001acc833981810160405281019062000037919062000183565b336000806101000a81548173ffffffffffffffffffffffffffffffffffffffff021916908373ffffffffffffffffffffffffffffffffffffffff16021790555081600160006101000a81548173ffffffffffffffffffffffffffffffffffffffff021916908373ffffffffffffffffffffffffffffffffffffffff16021790555080600160146101000a81548160ff021916908360ff1602179055505050620001ca565b600080fd5b600073ffffffffffffffffffffffffffffffffffffffff82169050919050565b60006200010d82620000e0565b9050919050565b6200011f8162000100565b81146200012b57600080fd5b50565b6000815190506200013f8162000114565b92915050565b600060ff82169050919050565b6200015d8162000145565b81146200016957600080fd5b50565b6000815190506200017d8162000152565b92915050565b600080604083850312156200019d576200019c620000db565b5b6000620001ad858286016200012e565b9250506020620001c0858286016200016c565b9150509250929050565b6118f280620001da6000396000f3fe608060405234801561001057600080fd5b50600436106100935760003560e01c806399c8d5561161006657806399c8d556146100fa578063a475b5dd14610118578063ca833fc814610136578063d26518551461016a578063f5038ce41461018657610093565b80633ccfd60b146100985780634cf291d6146100a25780637996f571146100be5780638da5cb5b146100dc575b600080fd5b6100a06101a2565b005b6100bc60048036038101906100b79190610f6a565b61038e565b005b6100c661043a565b6040516100d39190610fd8565b60405180910390f35b6100e4610460565b6040516100f19190610fd8565b60405180910390f35b610102610484565b60405161010f9190611002565b60405180910390f35b610120610497565b60405161012d9190611036565b60405180910390f35b610150600480360381019061014b919061107d565b610907565b604051610161959493929190611121565b60405180910390f35b610184600480360381019061017f919061107d565b610957565b005b6101a0600480360381019061019b91906111a0565b610a29565b005b60008054906101000a900473ffffffffffffffffffffffffffffffffffffffff1673ffffffffffffffffffffffffffffffffffffffff163373ffffffffffffffffffffffffffffffffffffffff1614610230576040517f08c379a00000000000000000000000000000000000000000000000000000000081526004016102279061123d565b60405180910390fd5b600160009054906101000a900473ffffffffffffffffffffffffffffffffffffffff1673ffffffffffffffffffffffffffffffffffffffff1663a9059cbb60008054906101000a900473ffffffffffffffffffffffffffffffffffffffff16600160009054906101000a900473ffffffffffffffffffffffffffffffffffffffff1673ffffffffffffffffffffffffffffffffffffffff166370a08231306040518263ffffffff1660e01b81526004016102ea9190610fd8565b602060405180830381865afa158015610307573d6000803e3d6000fd5b505050506040513d601f19601f8201168201806040525081019061032b9190611272565b6040518363ffffffff1660e01b815260040161034892919061129f565b6020604051808303816000875af1158015610367573d6000803e3d6000fd5b505050506040513d601f19601f8201168201806040525081019061038b9190611300565b50565b60008054906101000a900473ffffffffffffffffffffffffffffffffffffffff1673ffffffffffffffffffffffffffffffffffffffff163373ffffffffffffffffffffffffffffffffffffffff161461041c576040517f08c379a00000000000000000000000000000000000000000000000000000000081526004016104139061123d565b60405180910390fd5b80600160146101000a81548160ff021916908360ff16021790555050565b600160009054906101000a900473ffffffffffffffffffffffffffffffffffffffff1681565b60008054906101000a900473ffffffffffffffffffffffffffffffffffffffff1681565b600160149054906101000a900460ff1681565b6000600160038111156104ad576104ac6110aa565b5b600260003373ffffffffffffffffffffffffffffffffffffffff1673ffffffffffffffffffffffffffffffffffffffff16815260200190815260200160002060030160009054906101000a900460ff16600381111561050f5761050e6110aa565b5b1461054f576040517f08c379a000000000000000000000000000000000000000000000000000000000815260040161054690611379565b60405180910390fd5b6001600260003373ffffffffffffffffffffffffffffffffffffffff1673ffffffffffffffffffffffffffffffffffffffff168152602001908152602001600020600001544361059f91906113c8565b10156105e0576040517f08c379a00000000000000000000000000000000000000000000000000000000081526004016105d79061146e565b60405180910390fd5b6000600260003373ffffffffffffffffffffffffffffffffffffffff1673ffffffffffffffffffffffffffffffffffffffff1681526020019081526020016000206004015433600260003373ffffffffffffffffffffffffffffffffffffffff1673ffffffffffffffffffffffffffffffffffffffff168152602001908152602001600020600001544060405160200161067c93929190611522565b604051602081830303815290604052805190602001209050600060028260001c6106a6919061158e565b9050600260003373ffffffffffffffffffffffffffffffffffffffff1673ffffffffffffffffffffffffffffffffffffffff16815260200190815260200160002060010160009054906101000a900460ff1660ff1681036108935760028060003373ffffffffffffffffffffffffffffffffffffffff1673ffffffffffffffffffffffffffffffffffffffff16815260200190815260200160002060030160006101000a81548160ff02191690836003811115610766576107656110aa565b5b0217905550600160009054906101000a900473ffffffffffffffffffffffffffffffffffffffff1673ffffffffffffffffffffffffffffffffffffffff1663a9059cbb336064600160149054906101000a900460ff1660646107c891906115bf565b60ff1660028060003373ffffffffffffffffffffffffffffffffffffffff1673ffffffffffffffffffffffffffffffffffffffff1681526020019081526020016000206002015461081991906115f4565b61082391906115f4565b61082d9190611636565b6040518363ffffffff1660e01b815260040161084a92919061129f565b6020604051808303816000875af1158015610869573d6000803e3d6000fd5b505050506040513d601f19601f8201168201806040525081019061088d9190611300565b506108ff565b6003600260003373ffffffffffffffffffffffffffffffffffffffff1673ffffffffffffffffffffffffffffffffffffffff16815260200190815260200160002060030160006101000a81548160ff021916908360038111156108f9576108f86110aa565b5b02179055505b809250505090565b60026020528060005260406000206000915090508060000154908060010160009054906101000a900460ff16908060020154908060030160009054906101000a900460ff16908060040154905085565b60008054906101000a900473ffffffffffffffffffffffffffffffffffffffff1673ffffffffffffffffffffffffffffffffffffffff163373ffffffffffffffffffffffffffffffffffffffff16146109e5576040517f08c379a00000000000000000000000000000000000000000000000000000000081526004016109dc9061123d565b60405180910390fd5b80600160006101000a81548173ffffffffffffffffffffffffffffffffffffffff021916908373ffffffffffffffffffffffffffffffffffffffff16021790555050565b60016003811115610a3d57610a3c6110aa565b5b600260003373ffffffffffffffffffffffffffffffffffffffff1673ffffffffffffffffffffffffffffffffffffffff16815260200190815260200160002060030160009054906101000a900460ff166003811115610a9f57610a9e6110aa565b5b03610adf576040517f08c379a0000000000000000000000000000000000000000000000000000000008152600401610ad6906116d9565b60405180910390fd5b80600160009054906101000a900473ffffffffffffffffffffffffffffffffffffffff1673ffffffffffffffffffffffffffffffffffffffff166370a08231336040518263ffffffff1660e01b8152600401610b3b9190610fd8565b602060405180830381865afa158015610b58573d6000803e3d6000fd5b505050506040513d601f19601f82011682018060405250810190610b7c9190611272565b1015610bbd576040517f08c379a0000000000000000000000000000000000000000000000000000000008152600401610bb490611745565b60405180910390fd5b80600160009054906101000a900473ffffffffffffffffffffffffffffffffffffffff1673ffffffffffffffffffffffffffffffffffffffff166370a08231306040518263ffffffff1660e01b8152600401610c199190610fd8565b602060405180830381865afa158015610c36573d6000803e3d6000fd5b505050506040513d601f19601f82011682018060405250810190610c5a9190611272565b1015610c9b576040517f08c379a0000000000000000000000000000000000000000000000000000000008152600401610c92906117b1565b60405180910390fd5b600160009054906101000a900473ffffffffffffffffffffffffffffffffffffffff1673ffffffffffffffffffffffffffffffffffffffff166323b872dd3330846040518463ffffffff1660e01b8152600401610cfa939291906117d1565b6020604051808303816000875af1158015610d19573d6000803e3d6000fd5b505050506040513d601f19601f82011682018060405250810190610d3d9190611300565b610d7c576040517f08c379a0000000000000000000000000000000000000000000000000000000008152600401610d7390611854565b60405180910390fd5b43600260003373ffffffffffffffffffffffffffffffffffffffff1673ffffffffffffffffffffffffffffffffffffffff1681526020019081526020016000206000018190555081600260003373ffffffffffffffffffffffffffffffffffffffff1673ffffffffffffffffffffffffffffffffffffffff16815260200190815260200160002060010160006101000a81548160ff021916908360ff16021790555080600260003373ffffffffffffffffffffffffffffffffffffffff1673ffffffffffffffffffffffffffffffffffffffff168152602001908152602001600020600201819055506001600260003373ffffffffffffffffffffffffffffffffffffffff1673ffffffffffffffffffffffffffffffffffffffff16815260200190815260200160002060030160006101000a81548160ff02191690836003811115610ecb57610eca6110aa565b5b0217905550600260003373ffffffffffffffffffffffffffffffffffffffff1673ffffffffffffffffffffffffffffffffffffffff1681526020019081526020016000206004016000815480929190610f2390611874565b91905055505050565b600080fd5b600060ff82169050919050565b610f4781610f31565b8114610f5257600080fd5b50565b600081359050610f6481610f3e565b92915050565b600060208284031215610f8057610f7f610f2c565b5b6000610f8e84828501610f55565b91505092915050565b600073ffffffffffffffffffffffffffffffffffffffff82169050919050565b6000610fc282610f97565b9050919050565b610fd281610fb7565b82525050565b6000602082019050610fed6000830184610fc9565b92915050565b610ffc81610f31565b82525050565b60006020820190506110176000830184610ff3565b92915050565b6000819050919050565b6110308161101d565b82525050565b600060208201905061104b6000830184611027565b92915050565b61105a81610fb7565b811461106557600080fd5b50565b60008135905061107781611051565b92915050565b60006020828403121561109357611092610f2c565b5b60006110a184828501611068565b91505092915050565b7f4e487b7100000000000000000000000000000000000000000000000000000000600052602160045260246000fd5b600481106110ea576110e96110aa565b5b50565b60008190506110fb826110d9565b919050565b600061110b826110ed565b9050919050565b61111b81611100565b82525050565b600060a0820190506111366000830188611027565b6111436020830187610ff3565b6111506040830186611027565b61115d6060830185611112565b61116a6080830184611027565b9695505050505050565b61117d8161101d565b811461118857600080fd5b50565b60008135905061119a81611174565b92915050565b600080604083850312156111b7576111b6610f2c565b5b60006111c585828601610f55565b92505060206111d68582860161118b565b9150509250929050565b600082825260208201905092915050565b7f596f752073686f756c64206e6f74207061737321000000000000000000000000600082015250565b60006112276014836111e0565b9150611232826111f1565b602082019050919050565b600060208201905081810360008301526112568161121a565b9050919050565b60008151905061126c81611174565b92915050565b60006020828403121561128857611287610f2c565b5b60006112968482850161125d565b91505092915050565b60006040820190506112b46000830185610fc9565b6112c16020830184611027565b9392505050565b60008115159050919050565b6112dd816112c8565b81146112e857600080fd5b50565b6000815190506112fa816112d4565b92915050565b60006020828403121561131657611315610f2c565b5b6000611324848285016112eb565b91505092915050565b7f596f752068617665206e6f2067616d6520746f2072657665616c7e0000000000600082015250565b6000611363601b836111e0565b915061136e8261132d565b602082019050919050565b6000602082019050818103600083015261139281611356565b9050919050565b7f4e487b7100000000000000000000000000000000000000000000000000000000600052601160045260246000fd5b60006113d38261101d565b91506113de8361101d565b92508282039050818111156113f6576113f5611399565b5b92915050565b7f506c656173652077616974203120626c6f636b20616e6420747279206167616960008201527f6e7e000000000000000000000000000000000000000000000000000000000000602082015250565b60006114586022836111e0565b9150611463826113fc565b604082019050919050565b600060208201905081810360008301526114878161144b565b9050919050565b6000819050919050565b6114a96114a48261101d565b61148e565b82525050565b60008160601b9050919050565b60006114c7826114af565b9050919050565b60006114d9826114bc565b9050919050565b6114f16114ec82610fb7565b6114ce565b82525050565b6000819050919050565b6000819050919050565b61151c611517826114f7565b611501565b82525050565b600061152e8286611498565b60208201915061153e82856114e0565b60148201915061154e828461150b565b602082019150819050949350505050565b7f4e487b7100000000000000000000000000000000000000000000000000000000600052601260045260246000fd5b60006115998261101d565b91506115a48361101d565b9250826115b4576115b361155f565b5b828206905092915050565b60006115ca82610f31565b91506115d583610f31565b9250828203905060ff8111156115ee576115ed611399565b5b92915050565b60006115ff8261101d565b915061160a8361101d565b92508282026116188161101d565b9150828204841483151761162f5761162e611399565b5b5092915050565b60006116418261101d565b915061164c8361101d565b92508261165c5761165b61155f565b5b828204905092915050565b7f706c656173652072657665616c20746865206c656173742067616d652066697260008201527f7374210000000000000000000000000000000000000000000000000000000000602082015250565b60006116c36023836111e0565b91506116ce82611667565b604082019050919050565b600060208201905081810360008301526116f2816116b6565b9050919050565b7f596f7527726520746f6f20706f6f720000000000000000000000000000000000600082015250565b600061172f600f836111e0565b915061173a826116f9565b602082019050919050565b6000602082019050818103600083015261175e81611722565b9050919050565b7f49276d20746f6f20706f6f720000000000000000000000000000000000000000600082015250565b600061179b600c836111e0565b91506117a682611765565b602082019050919050565b600060208201905081810360008301526117ca8161178e565b9050919050565b60006060820190506117e66000830186610fc9565b6117f36020830185610fc9565b6118006040830184611027565b949350505050565b7f7472616e73666572206572726f72000000000000000000000000000000000000600082015250565b600061183e600e836111e0565b915061184982611808565b602082019050919050565b6000602082019050818103600083015261186d81611831565b9050919050565b600061187f8261101d565b91507fffffffffffffffffffffffffffffffffffffffffffffffffffffffffffffffff82036118b1576118b0611399565b5b60018201905091905056fea26469706673582212201d3d55d050dd7d67c4e461b80a2505b63860af48ed106339311ad2590609a28264736f6c63430008110033",
    "linkReferences": {},
    "deployedLinkReferences": {}
}